:03000000020506F0
:0C050600787FE4F6D8FD75812F02054DCA
:05067600253032780080
:10063C00758920759850758DFD858D8BE4F587D265
:06064C00AFD2ACD28E22F9
:08066E008F993099FDC2992219
:10065200120478FF600C12066E740129F9E43AFA6A
:0306620080EE2205
:10000300750BFF750C06750D768E0E8F0F7B007AC0
:0F0013000079221200827B007A007922020652C5
:10059200B7C9BBA8C1BDB0B6D3B3B4ACBAEC0D0AEF
:1005A200B0D9C0EFD3DCB5CCB0EBC8D5B7E70D0AF4
:1005B200CED4BFB4C2FACCECD4C6B2BBB6AF0D0A2D
:1005C200B2BBD6AAD4C6D3EBCED2BEE3B6AB0D0A2B
:0405D200000D0A000E
:03067B00011C015E
:1005D600752AFF752B05752C92782D7C007D007B86
:1005E600FF7A0579D37E007F0312045212063C7F00
:1005F6003312066EAB2AAA2BA92C1206527580213D
:0F060600E51CB401FBAF9912066EE4F51C80F100
:030023000206656D
:09066500309805C298751C0132A1
:100512000205D6E493A3F8E493A34003F68001F224
:1005220008DFF48029E493A3F85407240CC8C333EA
:10053200C4540F4420C8834004F456800146F6DFB9
:10054200E4800B010204081020408090067BE47EC8
:10055200019360BCA3FF543F30E509541FFEE493AE
:10056200A360010ECF54C025E060A840B8E493A375
:10057200FAE493A3F8E493A3C8C582C8CAC583CAA0
:10058200F0A3C8C582C8CAC583CADFE9DEE780BE58
:01067E00007B
:10038200E709F608DFFA8046E709F208DFFA803E5D
:1003920088828C83E709F0A3DFFA8032E309F6084A
:1003A200DFFA8078E309F208DFFA807088828C83B2
:1003B200E309F0A3DFFA806489828A83E0A3F60866
:1003C200DFFA805889828A83E0A3F208DFFA804C40
:1003D20080D280FA80C680D4806980F28033801017
:1003E20080A680EA809A80A880DA80E280CA803380
:1003F20089828A83ECFAE493A3C8C582C8CCC583F8
:10040200CCF0A3C8C582C8CCC583CCDFE9DEE780C7
:100412000D89828A83E493A3F608DFF9ECFAA9F046
:10042200EDFB2289828A83ECFAE0A3C8C582C8CC9C
:10043200C583CCF0A3C8C582C8CCC583CCDFEADEB5
:10044200E880DB89828A83E493A3F208DFF980CC17
:1004520088F0EF60010E4E60C388F0ED2402B40410
:100462000050B9F582EB2402B4040050AF232345B7
:0604720082239003D27307
:10047800BB010689828A83E0225002E722BBFE0282
:09048800E32289828A83E49322B5
:10002600E517240BF8E60517227808300702780B47
:10003600E475F0011204D00204782000EB7F2ED282
:10004600008018EF540F2490D43440D4FF30040BB2
:10005600EF24BFB41A0050032461FFE518600215AF
:1000660018051BE51B7002051A30070D7808E475A4
:10007600F0011204D0EF0204BE0206157403D20783
:100086008003E4C207F5178B088A09890AE4F51884
:10009600F51AF51BE51860077F2012006180F575DB
:1000A60019FFC201C200C202C203C205C206C208CB
:1000B60012002FFF700D3007057F00120072AF1B74
:1000C600AE1A22B4255FC2D5C20412002FFF24D077
:1000D600B40A00501A75F00A781830D50508B6FF2C
:1000E6000106C6A426F620D5047002D20380D924C0
:1000F600CFB41A00EF5004C2E5D204020272D20154
:1001060080C6D20080C0D20280BCD2D580BAD205C9
:1001160080B47F201200612002077401B5180040E8
:10012600F1120026FF12006102009AD208D2068060
:1001360095120026FB120026FA120026F94A4B7089
:100146000679437A037BFF20022EE518602A7E009B
:100156008E8275830012049160060EEE651970F0AA
:10016600C2D5EBC0E0EAC0E0E9C0E0EE1202B9D0C9
:10017600E0F9D0E0FAD0E0FB120478FF60AAEBC009
:10018600E0EAC0E0E9C0E0120061D0E02401F9D065
:10019600E03400FAD0E0FBE5190460DCD519D9801B
:1001A600877BFF7A0279B5D202809C79108002792A
:1001B60008C206C2088008D2D5790A8004790AC224
:1001C600D5E519047002F519E4FAFDFEFF120026C2
:1001D600FC7B08200113120026FD7B1030000A125A
:1001E6000026FE120026FF7B20EC3382D592D550E6
:1001F60013C3E43000069FFFE49EFEE42001039D46
:10020600FDE49CFCE4CBF8C201EC700CCFCECDCC67
:10021600E824F8F870F38017C3EF33FFEE33FEEDF2
:1002260033FDEC33FCEB33FB994002FB0FD8E9EBD3
:10023600300105F8D0E0C448B201C0E00AEC4D4EEA
:100246004F78207B0070C2EAB5190040BCC0E012AE
:1002560002BBD0F0D0E0200104C4C0E0C4B201C0AB
:10026600F012004AD0F0D5F0EB02009A1204E00139
:10027600375301B15801084C01044201B54F01BD85
:0F0286004401BD49011D4301C35501A74601A70E
:100295004501A747036350010C2D01102E01332B97
:1002A500011423013120034C2A00CC480000012B06
:1002B5003F3F3F00790AA2D5200314300509B91044
:1002C500020404B9080104A2D52006025001042045
:1002D50002689202B518005034C0E07F203003193F
:1002E5007F30A20272067205500F120312C202C2BB
:1002F50006C205C2087F30800F300503E9C0E01251
:100305000061300503D0E0F9D0E0B518CC30051711
:100315007F30B9100C1200617F583004077F788058
:1003250003B908031200613002057F2D0200617FC9
:10033500202008F87F2B2006F322920280CF286E1A
:10034500756C6C2900D2011200263001F8C20178C3
:100355001830D50108F60200CC2D5043495812003B
:10036500262403B405004001E490035E9312005275
:0D037500743A120052D2037518040201B14F
:10049100BB010CE58229F582E5833AF583E0225020
:1004A10006E92582F8E622BBFE06E92582F8E2226A
:0D04B100E58229F582E5833AF583E4932284
:1004BE00BB010689828A83F0225002F722BBFE011D
:0204CE00F32217
:1004D000FAE6FB0808E6F925F0F618E6CA3AF6222D
:1004E000D083D082F8E4937012740193700DA3A3AB
:1004F00093F8740193F5828883E4737402936860BF
:06050000EFA3A3A380DFBE
:10061500EFB40A07740D120620740A309811A899D0
:10062500B8130CC2983098FDA899C298B811F63045
:0706350099FDC299F599221D
:00000001FF
